:020000040000FA
:1000000008040020F100000011010000D5000000EC
:1000100000000000000000000000000000000000E0
:1000200000000000000000000000000015010000BA
:10003000000000000000000017010000190100008E
:100040001B0100001B0100001B0100001B01000040
:100050001B0100001B0100001B0100001B01000030
:100060001B0100001B0100001B0100001B01000020
:100070001B0100001B0100001B0100001B01000010
:100080001B0100001B0100001B0100001B01000000
:100090001B0100001B0100001B0100001B010000F0
:1000A0001B0100001B0100001B0100001B010000E0
:1000B0001B0100001B0100001B0100001B010000D0
:1000C0000348854600F06AF800480047A105000093
:1000D0000804002004207146084202D0EFF3098092
:1000E00001E0EFF308807146004A10472D0200003E
:1000F0000A480B4901600B4901600B4901600B4A3A
:100100000B491160002101600A4880470A480047F6
:10011000FEE7FEE7FEE7FEE7FEE7FEE70001005030
:100120005900000016000000880000002400005064
:10013000A55A000075020000C1000000F0B51FB410
:100140000646002082B005464024019100901BE045
:10015000019922460F46304600F042F8049A059B6A
:10016000801A994110D310461946224600F028F80B
:10017000361A8F410197224601200021009F00F08E
:100180001FF838184D4100902046641E0028DFDC1F
:10019000019B00982946324607B0F0BD064C012568
:1001A000064E05E0E36807CC2B430C3C984710341F
:1001B000B442F7D3FFF788FF98060000B8060000A6
:1001C00010B5202A04DB0146203A9140002010BDE2
:1001D000914020239C1A0346E3401943904010BDF0
:1001E00010B5202A04DB0846203AD040002110BD7B
:1001F0000B46D340D0402024A21A91400843194610
:1002000010BDF0B5002301273C469C400C4208D0AD
:1002100005685C000326A640B5431646A640354354
:1002200005605B1C102BEFD3F0BD0000044603A05B
:1002300000F022F8204600F0DBF9FEE7496E204886
:10024000617264204661756C742048616E646C65EF
:10025000720A000006498A691202FCD408600A2862
:1002600004D188690002FCD40D20086070470000AA
:1002700000000540704700000FB410B503A9044BFF
:10028000044A029800F018F810BC08BC04B01847E3
:10029000950500000000002002E008C8121F08C1F8
:1002A000002AFAD170477047002001E001C1121FF7
:1002B000002AFBD170470000FFB58FB00F460446FF
:1002C000002606E025280AD0129A11999047641C4E
:1002D000761C20780028F5D1304613B0F0BD0025FB
:1002E0000121A14A009500E00543641C23780846DB
:1002F000203B98401042F7D120782E2815D10420B9
:1003000005436078641C2A280AD101CF641C009040
:100310000BE000990A22514330394018641C0090C8
:100320002078014630390929F3D920786C280ED07D
:1003300004DC4C2813D06A2812D104E074280ED0B3
:100340007A280DD10BE001204005054307E001218B
:10035000090562780D43824201D16D18641C641C4A
:100360002078864669284AD008DC0028B4D058286E
:100370006DD0632810D0642808D140E070286BD07D
:10038000732812D0752860D0782860D0129A7046F1
:1003900011999047761CE5E038786946087200208C
:1003A000487202A80190012003E038680190002003
:1003B000C0433F1D69070CD5002500E06D1C009966
:1003C0008D420FDA8542F9DB0199495D0029F5D1AB
:1003D00008E0002500E06D1C8542FCDB0199495DC9
:1003E0000029F8D1761907E0019801990078491C95
:1003F0000191129A119990476D1EF5D2B2E00A2030
:10040000029000216802400F039102280CD001CF16
:10041000C117844600290DDA62460846524200217F
:10042000814194462D2008E0FF1DFF08FF0003CF07
:100430008446EFE7280504D52B206A461074012076
:100440003CE0E8073AD02020F7E70A2000E010203F
:1004500000210391029007E0102002900021042067
:1004600005430820039100906802400F022810D035
:1004700001CF0021844600200D9028071FD570462B
:1004800070280CD0029A1020039B42401A430CD0D3
:1004900015E0FF1DFF08FF0003CF8446EBE7402077
:1004A0006A46107401200D900CE06046084306D0A7
:1004B00030206A4610747046507402200D907046C9
:1004C000582804D029A001900DA80E900DE02CA072
:1004D000F9E76046039B029AFFF730FE019B8446D2
:1004E0009B5C0E9A521E0E92137060460843F0D128
:1004F0000E9805A9081A20300190680701D50098C8
:1005000001E0012000900199884203DD0146019835
:10051000081A00E000200025009006E004A8129AC6
:10052000405D119990476D1C761C0D988542F5DB56
:1005300004E0129A302011999047761C0099481EC9
:1005400000900029F5DC08E00E980E990078491C0F
:100550000E91129A11999047761C0199481E0190AC
:100560000029F1DC641CB4E6092801003031323383
:1005700034353637383961626364656600000000DF
:1005800030313233343536373839414243444546C9
:100590000000000000B50346FFF75CFE184600BDF2
:1005A000592216230F48882102E00260036001608F
:1005B0000468012CF9D100240460012210210A48AA
:1005C000FFF71FFE08480121002249024038FFF7CB
:1005D00018FE06480461054940394A6A0122026151
:1005E000486AFEE700010050C0400050C042005081
:1005F00010B50446016810A0FFF73EFE11A0616827
:10060000FFF73AFE12A0A168FFF736FE13A0E168DB
:10061000FFF732FE14A02169FFF72EFE15A06169D5
:10062000FFF72AFE16A0A169FFF726FE17A0E169D1
:10063000FFF722FE10BD0000723020203D203078F0
:1006400025780A00723120203D20307825780A0074
:10065000723220203D20307825780A007233202025
:100660003D20307825780A00723132203D203078E4
:1006700025780A006C7220203D20307825780A0009
:10068000706320203D20307825780A007073722036
:100690003D20307825780A00B806000000000020D0
:1006A0000400000098020000BC06000004000020C6
:0C06B00004040000A8020000000000008C
:04000005000000F106
:00000001FF
